{
  "contractName": "InitialContract",
  "abi": [
    {
      "constant": true,
      "inputs": [],
      "name": "meaningOfLife",
      "outputs": [
        {
          "internalType": "uint256",
          "name": "",
          "type": "uint256"
        }
      ],
      "payable": false,
      "stateMutability": "view",
      "type": "function"
    }
  ],
  "bytecode": "0x6080604052602a600055348015601457600080fd5b506084806100236000396000f3fe6080604052348015600f57600080fd5b506004361060285760003560e01c80635353455a14602d575b600080fd5b60336049565b6040518082815260200191505060405180910390f35b6000548156fea265627a7a72315820a11edee7b9204be00a6dc282cc119c2cf69ac72c04b3463807c8f1ab5a9d9a2264736f6c63430005100032",
  "source": "pragma solidity >=0.4.22 <0.8.0;\n\ncontract InitialContract {\n  uint public meaningOfLife = 42;\n}",
  "sourcePath": "/Users/arshaan/Desktop/development/crypto/true-fan/contracts/InitialContract.sol",
  "compiler": {
    "name": "solc",
    "version": "0.5.16+commit.9c3226ce.Emscripten.clang"
  },
  "schemaVersion": "3.3.1",
  "updatedAt": "2020-10-18T22:35:03.508Z",
  "networkType": "ethereum",
  "devdoc": {
    "methods": {}
  },
  "userdoc": {
    "methods": {}
  }
}