{
  "contractName": "TrueFanContract",
  "abi": [
    {
      "constant": true,
      "inputs": [
        {
          "internalType": "uint256",
          "name": "",
          "type": "uint256"
        },
        {
          "internalType": "uint256",
          "name": "",
          "type": "uint256"
        }
      ],
      "name": "addressToSubscriptions",
      "outputs": [
        {
          "internalType": "string",
          "name": "creatorUsername",
          "type": "string"
        },
        {
          "internalType": "uint256",
          "name": "lastPayment",
          "type": "uint256"
        }
      ],
      "payable": false,
      "stateMutability": "view",
      "type": "function"
    },
    {
      "constant": true,
      "inputs": [
        {
          "internalType": "string",
          "name": "",
          "type": "string"
        }
      ],
      "name": "usernameToCreator",
      "outputs": [
        {
          "internalType": "string",
          "name": "displayPictureURL",
          "type": "string"
        },
        {
          "internalType": "uint256",
          "name": "creatorAddress",
          "type": "uint256"
        }
      ],
      "payable": false,
      "stateMutability": "view",
      "type": "function"
    },
    {
      "constant": false,
      "inputs": [
        {
          "internalType": "string",
          "name": "_username",
          "type": "string"
        },
        {
          "internalType": "string",
          "name": "_displayPictureURL",
          "type": "string"
        }
      ],
      "name": "registerCreator",
      "outputs": [],
      "payable": false,
      "stateMutability": "nonpayable",
      "type": "function"
    },
    {
      "constant": false,
      "inputs": [
        {
          "internalType": "string",
          "name": "_creatorUsername",
          "type": "string"
        }
      ],
      "name": "purchaseSubscription",
      "outputs": [],
      "payable": false,
      "stateMutability": "nonpayable",
      "type": "function"
    }
  ],
  "bytecode": "0x608060405234801561001057600080fd5b50610d06806100206000396000f3fe608060405234801561001057600080fd5b506004361061004c5760003560e01c80631d9b30c714610051578063856e9bed1461010c57806387a2748014610247578063b9f8d3b4146102ff575b600080fd5b61010a6004803603602081101561006757600080fd5b810190808035906020019064010000000081111561008457600080fd5b82018360208201111561009657600080fd5b803590602001918460018302840111640100000000831117156100b857600080fd5b91908080601f016020809104026020016040519081016040528093929190818152602001838380828437600081840152601f19601f820116905080830192505050505050509192919290505050610451565b005b6101c56004803603602081101561012257600080fd5b810190808035906020019064010000000081111561013f57600080fd5b82018360208201111561015157600080fd5b8035906020019184600183028401116401000000008311171561017357600080fd5b91908080601f016020809104026020016040519081016040528093929190818152602001838380828437600081840152601f19601f820116905080830192505050505050509192919290505050610874565b6040518080602001838152602001828103825284818151815260200191508051906020019080838360005b8381101561020b5780820151818401526020810190506101f0565b50505050905090810190601f1680156102385780820380516001836020036101000a031916815260200191505b50935050505060405180910390f35b61027d6004803603604081101561025d57600080fd5b810190808035906020019092919080359060200190929190505050610946565b6040518080602001838152602001828103825284818151815260200191508051906020019080838360005b838110156102c35780820151818401526020810190506102a8565b50505050905090810190601f1680156102f05780820380516001836020036101000a031916815260200191505b50935050505060405180910390f35b61044f6004803603604081101561031557600080fd5b810190808035906020019064010000000081111561033257600080fd5b82018360208201111561034457600080fd5b8035906020019184600183028401116401000000008311171561036657600080fd5b91908080601f016020809104026020016040519081016040528093929190818152602001838380828437600081840152601f19601f820116905080830192505050505050509192919290803590602001906401000000008111156103c957600080fd5b8201836020820111156103db57600080fd5b803590602001918460018302840111640100000000831117156103fd57600080fd5b91908080601f016020809104026020016040519081016040528093929190818152602001838380828437600081840152601f19601f820116905080830192505050505050509192919290505050610a1c565b005b600073ffffffffffffffffffffffffffffffffffffffff166000826040518082805190602001908083835b6020831061049f578051825260208201915060208101905060208303925061047c565b6001836020036101000a03801982511681845116808217855250505050505090500191505090815260200160405180910390206001015473ffffffffffffffffffffffffffffffffffffffff161415610560576040517f08c379a00000000000000000000000000000000000000000000000000000000081526004018080602001828103825260188152602001807f54686520757365726e616d65206d7573742065786973742e000000000000000081525060200191505060405180910390fd5b610568610bf8565b6060600160003373ffffffffffffffffffffffffffffffffffffffff168152602001908152602001600020805480602002602001604051908101604052809291908181526020016000905b828210156106915783829060005260206000209060020201604051806040016040529081600082018054600181600116156101000203166002900480601f01602080910402602001604051908101604052809291908181526020018280546001816001161561010002031660029004801561066f5780601f106106445761010080835404028352916020019161066f565b820191906000526020600020905b81548152906001019060200180831161065257829003601f168201915b50505050508152602001600182015481525050815260200190600101906105b3565b50505050905060008090505b81518110156107c9576106ae610bf8565b8282815181106106ba57fe5b60200260200101519050846040516020018082805190602001908083835b602083106106fb57805182526020820191506020810190506020830392506106d8565b6001836020036101000a0380198251168184511680821785525050505050509050019150506040516020818303038152906040528051906020012081600001516040516020018082805190602001908083835b60208310610771578051825260208201915060208101905060208303925061074e565b6001836020036101000a0380198251168184511680821785525050505050509050019150506040516020818303038152906040528051906020012014156107bb57809350506107c9565b50808060010191505061069d565b506000826000015151141561086f576040518060400160405280848152602001428152509150600160003373ffffffffffffffffffffffffffffffffffffffff16815260200190815260200160002082908060018154018082558091505090600182039060005260206000209060020201600090919290919091506000820151816000019080519060200190610860929190610c12565b50602082015181600101555050505b505050565b600081805160208101820180518482526020830160208501208183528095505050505050600091509050806000018054600181600116156101000203166002900480601f0160208091040260200160405190810160405280929190818152602001828054600181600116156101000203166002900480156109365780601f1061090b57610100808354040283529160200191610936565b820191906000526020600020905b81548152906001019060200180831161091957829003601f168201915b5050505050908060010154905082565b6001602052816000526040600020818154811061095f57fe5b906000526020600020906002020160009150915050806000018054600181600116156101000203166002900480601f016020809104026020016040519081016040528092919081815260200182805460018160011615610100020316600290048015610a0c5780601f106109e157610100808354040283529160200191610a0c565b820191906000526020600020905b8154815290600101906020018083116109ef57829003601f168201915b5050505050908060010154905082565b600073ffffffffffffffffffffffffffffffffffffffff166000836040518082805190602001908083835b60208310610a6a5780518252602082019150602081019050602083039250610a47565b6001836020036101000a03801982511681845116808217855250505050505090500191505090815260200160405180910390206001015473ffffffffffffffffffffffffffffffffffffffff1614610b2a576040517f08c379a000000000000000000000000000000000000000000000000000000000815260040180806020018281038252601c8152602001807f54686520757365726e616d65206d75737420626520756e697175652e0000000081525060200191505060405180910390fd5b610b32610c92565b60405180604001604052808381526020013373ffffffffffffffffffffffffffffffffffffffff168152509050806000846040518082805190602001908083835b60208310610b965780518252602082019150602081019050602083039250610b73565b6001836020036101000a03801982511681845116808217855250505050505090500191505090815260200160405180910390206000820151816000019080519060200190610be5929190610c12565b5060208201518160010155905050505050565b604051806040016040528060608152602001600081525090565b828054600181600116156101000203166002900490600052602060002090601f016020900481019282601f10610c5357805160ff1916838001178555610c81565b82800160010185558215610c81579182015b82811115610c80578251825591602001919060010190610c65565b5b509050610c8e9190610cac565b5090565b604051806040016040528060608152602001600081525090565b610cce91905b80821115610cca576000816000905550600101610cb2565b5090565b9056fea265627a7a723158203d0e79761e36879479dfd19ee9e032954ca5d16fb9ae45615cd16a9ba210077864736f6c63430005100032",
  "source": "pragma solidity >=0.4.22 <0.8.0;\n\ncontract TrueFanContract {\n    struct Creator {\n        string displayPictureURL;\n        uint256 creatorAddress;\n    }\n\n    struct Subscription {\n        string creatorUsername;\n        uint256 lastPayment;\n    }\n\n    mapping(string => Creator) public usernameToCreator;\n    mapping(uint => Subscription[]) public addressToSubscriptions;\n\n    function registerCreator(\n        string memory _username,\n        string memory _displayPictureURL\n    ) public {\n        require(\n            address(usernameToCreator[_username].creatorAddress) ==\n                address(0x0),\n            \"The username must be unique.\"\n        );\n        Creator memory newCreator = Creator(\n            _displayPictureURL,\n            uint(msg.sender)\n        );\n        usernameToCreator[_username] = newCreator;\n    }\n\n    function purchaseSubscription(string memory _creatorUsername) public {\n        require(\n            address(usernameToCreator[_creatorUsername].creatorAddress) !=\n                address(0x0),\n            \"The username must exist.\"\n        );\n\n        Subscription memory foundSubscription;\n        Subscription[] memory allSubscriptions = addressToSubscriptions[uint(msg\n            .sender)];\n        for (uint i = 0; i < allSubscriptions.length; i++) {\n            Subscription memory currSub = allSubscriptions[i];\n            if (\n                keccak256(abi.encodePacked(currSub.creatorUsername)) ==\n                keccak256(abi.encodePacked(_creatorUsername))\n            ) {\n                foundSubscription = currSub;\n                break;\n            }\n        }\n\n        if (bytes(foundSubscription.creatorUsername).length == 0) {\n            foundSubscription = Subscription(_creatorUsername, block.timestamp);\n            addressToSubscriptions[uint(msg.sender)].push(foundSubscription);\n        }\n    }\n}\n",
  "sourcePath": "/Users/arshaan/Desktop/development/crypto/true-fan/contracts/TrueFanContract.sol",
  "compiler": {
    "name": "solc",
    "version": "0.5.16+commit.9c3226ce.Emscripten.clang"
  },
  "schemaVersion": "3.3.1",
  "updatedAt": "2020-10-20T01:43:57.206Z",
  "networkType": "ethereum",
  "devdoc": {
    "methods": {}
  },
  "userdoc": {
    "methods": {}
  }
}