{
  "contractName": "TrueFanContract",
  "abi": [
    {
      "constant": true,
      "inputs": [
        {
          "internalType": "address",
          "name": "",
          "type": "address"
        },
        {
          "internalType": "uint256",
          "name": "",
          "type": "uint256"
        }
      ],
      "name": "addressToSubscriptions",
      "outputs": [
        {
          "internalType": "string",
          "name": "creatorUsername",
          "type": "string"
        },
        {
          "internalType": "uint256",
          "name": "lastPayment",
          "type": "uint256"
        }
      ],
      "payable": false,
      "stateMutability": "view",
      "type": "function"
    },
    {
      "constant": true,
      "inputs": [
        {
          "internalType": "string",
          "name": "",
          "type": "string"
        }
      ],
      "name": "usernameToCreator",
      "outputs": [
        {
          "internalType": "string",
          "name": "displayPictureURL",
          "type": "string"
        },
        {
          "internalType": "uint256",
          "name": "creatorAddress",
          "type": "uint256"
        }
      ],
      "payable": false,
      "stateMutability": "view",
      "type": "function"
    },
    {
      "constant": false,
      "inputs": [
        {
          "internalType": "string",
          "name": "_username",
          "type": "string"
        },
        {
          "internalType": "string",
          "name": "_displayPictureURL",
          "type": "string"
        }
      ],
      "name": "registerCreator",
      "outputs": [],
      "payable": false,
      "stateMutability": "nonpayable",
      "type": "function"
    },
    {
      "constant": false,
      "inputs": [
        {
          "internalType": "string",
          "name": "_creatorUsername",
          "type": "string"
        }
      ],
      "name": "purchaseSubscription",
      "outputs": [],
      "payable": false,
      "stateMutability": "nonpayable",
      "type": "function"
    }
  ],
  "bytecode": "0x608060405234801561001057600080fd5b50610de3806100206000396000f3fe608060405234801561001057600080fd5b506004361061004c5760003560e01c80631d9b30c714610051578063856e9bed1461010c578063b9f8d3b414610247578063f772547b14610399575b600080fd5b61010a6004803603602081101561006757600080fd5b810190808035906020019064010000000081111561008457600080fd5b82018360208201111561009657600080fd5b803590602001918460018302840111640100000000831117156100b857600080fd5b91908080601f016020809104026020016040519081016040528093929190818152602001838380828437600081840152601f19601f820116905080830192505050505050509192919290505050610467565b005b6101c56004803603602081101561012257600080fd5b810190808035906020019064010000000081111561013f57600080fd5b82018360208201111561015157600080fd5b8035906020019184600183028401116401000000008311171561017357600080fd5b91908080601f016020809104026020016040519081016040528093929190818152602001838380828437600081840152601f19601f820116905080830192505050505050509192919290505050610951565b6040518080602001838152602001828103825284818151815260200191508051906020019080838360005b8381101561020b5780820151818401526020810190506101f0565b50505050905090810190601f1680156102385780820380516001836020036101000a031916815260200191505b50935050505060405180910390f35b6103976004803603604081101561025d57600080fd5b810190808035906020019064010000000081111561027a57600080fd5b82018360208201111561028c57600080fd5b803590602001918460018302840111640100000000831117156102ae57600080fd5b91908080601f016020809104026020016040519081016040528093929190818152602001838380828437600081840152601f19601f8201169050808301925050505050505091929192908035906020019064010000000081111561031157600080fd5b82018360208201111561032357600080fd5b8035906020019184600183028401116401000000008311171561034557600080fd5b91908080601f016020809104026020016040519081016040528093929190818152602001838380828437600081840152601f19601f820116905080830192505050505050509192919290505050610a23565b005b6103e5600480360360408110156103af57600080fd5b81019080803573ffffffffffffffffffffffffffffffffffffffff16906020019092919080359060200190929190505050610bff565b6040518080602001838152602001828103825284818151815260200191508051906020019080838360005b8381101561042b578082015181840152602081019050610410565b50505050905090810190601f1680156104585780820380516001836020036101000a031916815260200191505b50935050505060405180910390f35b600073ffffffffffffffffffffffffffffffffffffffff166000826040518082805190602001908083835b602083106104b55780518252602082019150602081019050602083039250610492565b6001836020036101000a03801982511681845116808217855250505050505090500191505090815260200160405180910390206001015473ffffffffffffffffffffffffffffffffffffffff161415610576576040517f08c379a00000000000000000000000000000000000000000000000000000000081526004018080602001828103825260188152602001807f54686520757365726e616d65206d7573742065786973742e000000000000000081525060200191505060405180910390fd5b6000809050610583610cd5565b6060600160003373ffffffffffffffffffffffffffffffffffffffff1673ffffffffffffffffffffffffffffffffffffffff168152602001908152602001600020805480602002602001604051908101604052809291908181526020016000905b828210156106c25783829060005260206000209060020201604051806040016040529081600082018054600181600116156101000203166002900480601f0160208091040260200160405190810160405280929190818152602001828054600181600116156101000203166002900480156106a05780601f10610675576101008083540402835291602001916106a0565b820191906000526020600020905b81548152906001019060200180831161068357829003601f168201915b50505050508152602001600182015481525050815260200190600101906105e4565b50505050905060008090505b81518110156107fd576106df610cd5565b8282815181106106eb57fe5b60200260200101519050856040516020018082805190602001908083835b6020831061072c5780518252602082019150602081019050602083039250610709565b6001836020036101000a0380198251168184511680821785525050505050509050019150506040516020818303038152906040528051906020012081600001516040516020018082805190602001908083835b602083106107a2578051825260208201915060208101905060208303925061077f565b6001836020036101000a0380198251168184511680821785525050505050509050019150506040516020818303038152906040528051906020012014156107ef57819450809350506107fd565b5080806001019150506106ce565b50600082600001515114156108bd576040518060400160405280858152602001428152509150600160003373ffffffffffffffffffffffffffffffffffffffff1673ffffffffffffffffffffffffffffffffffffffff168152602001908152602001600020829080600181540180825580915050906001820390600052602060002090600202016000909192909190915060008201518160000190805190602001906108aa929190610cef565b506020820151816001015550505061094b565b4282602001818152505081600160003373ffffffffffffffffffffffffffffffffffffffff1673ffffffffffffffffffffffffffffffffffffffff168152602001908152602001600020848154811061091257fe5b9060005260206000209060020201600082015181600001908051906020019061093c929190610cef565b50602082015181600101559050505b50505050565b600081805160208101820180518482526020830160208501208183528095505050505050600091509050806000018054600181600116156101000203166002900480601f016020809104026020016040519081016040528092919081815260200182805460018160011615610100020316600290048015610a135780601f106109e857610100808354040283529160200191610a13565b820191906000526020600020905b8154815290600101906020018083116109f657829003601f168201915b5050505050908060010154905082565b600073ffffffffffffffffffffffffffffffffffffffff166000836040518082805190602001908083835b60208310610a715780518252602082019150602081019050602083039250610a4e565b6001836020036101000a03801982511681845116808217855250505050505090500191505090815260200160405180910390206001015473ffffffffffffffffffffffffffffffffffffffff1614610b31576040517f08c379a000000000000000000000000000000000000000000000000000000000815260040180806020018281038252601c8152602001807f54686520757365726e616d65206d75737420626520756e697175652e0000000081525060200191505060405180910390fd5b610b39610d6f565b60405180604001604052808381526020013373ffffffffffffffffffffffffffffffffffffffff168152509050806000846040518082805190602001908083835b60208310610b9d5780518252602082019150602081019050602083039250610b7a565b6001836020036101000a03801982511681845116808217855250505050505090500191505090815260200160405180910390206000820151816000019080519060200190610bec929190610cef565b5060208201518160010155905050505050565b60016020528160005260406000208181548110610c1857fe5b906000526020600020906002020160009150915050806000018054600181600116156101000203166002900480601f016020809104026020016040519081016040528092919081815260200182805460018160011615610100020316600290048015610cc55780601f10610c9a57610100808354040283529160200191610cc5565b820191906000526020600020905b815481529060010190602001808311610ca857829003601f168201915b5050505050908060010154905082565b604051806040016040528060608152602001600081525090565b828054600181600116156101000203166002900490600052602060002090601f016020900481019282601f10610d3057805160ff1916838001178555610d5e565b82800160010185558215610d5e579182015b82811115610d5d578251825591602001919060010190610d42565b5b509050610d6b9190610d89565b5090565b604051806040016040528060608152602001600081525090565b610dab91905b80821115610da7576000816000905550600101610d8f565b5090565b9056fea265627a7a7231582067f61bc1c508ad2241a29a1c4fa0261e51a30b17f4572bf589b836de10cb2ce164736f6c63430005100032",
  "source": "pragma solidity >=0.4.22 <0.8.0;\n\ncontract TrueFanContract {\n    struct Creator {\n        string displayPictureURL;\n        uint256 creatorAddress;\n    }\n\n    struct Subscription {\n        string creatorUsername;\n        uint256 lastPayment;\n    }\n\n    mapping(string => Creator) public usernameToCreator;\n    mapping(address => Subscription[]) public addressToSubscriptions;\n\n    function registerCreator(\n        string memory _username,\n        string memory _displayPictureURL\n    ) public {\n        require(\n            address(usernameToCreator[_username].creatorAddress) ==\n                address(0x0),\n            \"The username must be unique.\"\n        );\n        Creator memory newCreator = Creator(\n            _displayPictureURL,\n            uint256(msg.sender)\n        );\n        usernameToCreator[_username] = newCreator;\n    }\n\n    function purchaseSubscription(string memory _creatorUsername) public {\n        require(\n            address(usernameToCreator[_creatorUsername].creatorAddress) !=\n                address(0x0),\n            \"The username must exist.\"\n        );\n\n        uint idxOfSub = 0;\n        Subscription memory foundSubscription;\n        Subscription[] memory allSubscriptions = addressToSubscriptions[msg\n            .sender];\n        for (uint256 i = 0; i < allSubscriptions.length; i++) {\n            Subscription memory currSub = allSubscriptions[i];\n            if (\n                keccak256(abi.encodePacked(currSub.creatorUsername)) ==\n                keccak256(abi.encodePacked(_creatorUsername))\n            ) {\n                idxOfSub = i;\n                foundSubscription = currSub;\n                break;\n            }\n        }\n\n        // If no existing subscription for this creator is found we create one and update it's \n        //  payment time.\n        if (bytes(foundSubscription.creatorUsername).length == 0) {\n            foundSubscription = Subscription(_creatorUsername, block.timestamp);\n            addressToSubscriptions[msg.sender].push(foundSubscription);\n        } else {\n            foundSubscription.lastPayment = block.timestamp;\n            addressToSubscriptions[msg.sender][idxOfSub] = foundSubscription;\n        }\n    }\n}\n",
  "sourcePath": "/Users/arshaan/Desktop/development/crypto/true-fan/contracts/TrueFanContract.sol",
  "compiler": {
    "name": "solc",
    "version": "0.5.16+commit.9c3226ce.Emscripten.clang"
  },
  "schemaVersion": "3.3.1",
  "updatedAt": "2020-10-20T03:01:21.574Z",
  "networkType": "ethereum",
  "devdoc": {
    "methods": {}
  },
  "userdoc": {
    "methods": {}
  }
}